{
  "_format": "hh-sol-artifact-1",
  "contractName": "DidContract",
  "sourceName": "contracts/DidContract.sol",
  "abi": [
    {
      "inputs": [],
      "stateMutability": "nonpayable",
      "type": "constructor"
    },
    {
      "inputs": [
        {
          "internalType": "address",
          "name": "owner",
          "type": "address"
        }
      ],
      "name": "OwnableInvalidOwner",
      "type": "error"
    },
    {
      "inputs": [
        {
          "internalType": "address",
          "name": "account",
          "type": "address"
        }
      ],
      "name": "OwnableUnauthorizedAccount",
      "type": "error"
    },
    {
      "anonymous": false,
      "inputs": [
        {
          "indexed": false,
          "internalType": "string",
          "name": "DidAddress",
          "type": "string"
        },
        {
          "indexed": false,
          "internalType": "string",
          "name": "Hashdata",
          "type": "string"
        }
      ],
      "name": "EventSetDidData",
      "type": "event"
    },
    {
      "anonymous": false,
      "inputs": [
        {
          "indexed": false,
          "internalType": "string",
          "name": "DidAddress",
          "type": "string"
        },
        {
          "indexed": false,
          "internalType": "string",
          "name": "vcTitle",
          "type": "string"
        },
        {
          "indexed": false,
          "internalType": "string",
          "name": "vcHashData",
          "type": "string"
        }
      ],
      "name": "EventSetVcData",
      "type": "event"
    },
    {
      "anonymous": false,
      "inputs": [
        {
          "indexed": false,
          "internalType": "address",
          "name": "walletAddress",
          "type": "address"
        },
        {
          "indexed": false,
          "internalType": "string",
          "name": "Hashdata",
          "type": "string"
        }
      ],
      "name": "EventSetWalletData",
      "type": "event"
    },
    {
      "anonymous": false,
      "inputs": [
        {
          "indexed": true,
          "internalType": "address",
          "name": "previousOwner",
          "type": "address"
        },
        {
          "indexed": true,
          "internalType": "address",
          "name": "newOwner",
          "type": "address"
        }
      ],
      "name": "OwnershipTransferred",
      "type": "event"
    },
    {
      "inputs": [
        {
          "internalType": "string",
          "name": "",
          "type": "string"
        }
      ],
      "name": "DidData",
      "outputs": [
        {
          "internalType": "string",
          "name": "",
          "type": "string"
        }
      ],
      "stateMutability": "view",
      "type": "function"
    },
    {
      "inputs": [
        {
          "internalType": "string",
          "name": "",
          "type": "string"
        },
        {
          "internalType": "string",
          "name": "",
          "type": "string"
        }
      ],
      "name": "VcData",
      "outputs": [
        {
          "internalType": "string",
          "name": "",
          "type": "string"
        }
      ],
      "stateMutability": "view",
      "type": "function"
    },
    {
      "inputs": [
        {
          "internalType": "address",
          "name": "",
          "type": "address"
        }
      ],
      "name": "WalletData",
      "outputs": [
        {
          "internalType": "string",
          "name": "",
          "type": "string"
        }
      ],
      "stateMutability": "view",
      "type": "function"
    },
    {
      "inputs": [],
      "name": "owner",
      "outputs": [
        {
          "internalType": "address",
          "name": "",
          "type": "address"
        }
      ],
      "stateMutability": "view",
      "type": "function"
    },
    {
      "inputs": [
        {
          "internalType": "address",
          "name": "_address",
          "type": "address"
        },
        {
          "internalType": "string",
          "name": "_didaddress",
          "type": "string"
        }
      ],
      "name": "removeUser",
      "outputs": [],
      "stateMutability": "nonpayable",
      "type": "function"
    },
    {
      "inputs": [
        {
          "internalType": "string",
          "name": "_didaddress",
          "type": "string"
        },
        {
          "internalType": "string",
          "name": "_vcTitle",
          "type": "string"
        }
      ],
      "name": "removeVc",
      "outputs": [],
      "stateMutability": "nonpayable",
      "type": "function"
    },
    {
      "inputs": [],
      "name": "renounceOwnership",
      "outputs": [],
      "stateMutability": "nonpayable",
      "type": "function"
    },
    {
      "inputs": [
        {
          "internalType": "string",
          "name": "_didaddress",
          "type": "string"
        },
        {
          "internalType": "string",
          "name": "_vcTitle",
          "type": "string"
        },
        {
          "internalType": "string",
          "name": "_vcHashData",
          "type": "string"
        }
      ],
      "name": "setVcData",
      "outputs": [],
      "stateMutability": "nonpayable",
      "type": "function"
    },
    {
      "inputs": [
        {
          "internalType": "address",
          "name": "_address",
          "type": "address"
        },
        {
          "internalType": "string",
          "name": "_didaddress",
          "type": "string"
        },
        {
          "internalType": "string",
          "name": "_HashData",
          "type": "string"
        }
      ],
      "name": "setWalletData",
      "outputs": [],
      "stateMutability": "nonpayable",
      "type": "function"
    },
    {
      "inputs": [
        {
          "internalType": "address",
          "name": "newOwner",
          "type": "address"
        }
      ],
      "name": "transferOwnership",
      "outputs": [],
      "stateMutability": "nonpayable",
      "type": "function"
    }
  ],
  "bytecode": "0x608060405234801561001057600080fd5b5033600073ffffffffffffffffffffffffffffffffffffffff168173ffffffffffffffffffffffffffffffffffffffff16036100845760006040517f1e4fbdf700000000000000000000000000000000000000000000000000000000815260040161007b919061019e565b60405180910390fd5b6100938161009960201b60201c565b506101b9565b60008060009054906101000a900473ffffffffffffffffffffffffffffffffffffffff169050816000806101000a81548173ffffffffffffffffffffffffffffffffffffffff021916908373ffffffffffffffffffffffffffffffffffffffff1602179055508173ffffffffffffffffffffffffffffffffffffffff168173ffffffffffffffffffffffffffffffffffffffff167f8be0079c531659141344cd1fd0a4f28419497f9722a3daafe3b4186f6b6457e060405160405180910390a35050565b600073ffffffffffffffffffffffffffffffffffffffff82169050919050565b60006101888261015d565b9050919050565b6101988161017d565b82525050565b60006020820190506101b3600083018461018f565b92915050565b611207806101c86000396000f3fe608060405234801561001057600080fd5b506004361061009e5760003560e01c80638da5cb5b116100665780638da5cb5b14610131578063995eca221461014f578063bb8eceb81461017f578063dcc2260d1461019b578063f2fde38b146101cb5761009e565b80630c0c2b0b146100a35780634afbd244146100bf578063715018a6146100ef57806380026a59146100f957806389325aae14610115575b600080fd5b6100bd60048036038101906100b89190610a3e565b6101e7565b005b6100d960048036038101906100d49190610ae5565b610277565b6040516100e69190610bad565b60405180910390f35b6100f761032d565b005b610113600480360381019061010e9190610c2d565b610341565b005b61012f600480360381019061012a9190610c89565b6103c2565b005b610139610414565b6040516101469190610d10565b60405180910390f35b61016960048036038101906101649190610c89565b61043d565b6040516101769190610bad565b60405180910390f35b61019960048036038101906101949190610d2b565b610516565b005b6101b560048036038101906101b09190610db6565b61060e565b6040516101c29190610bad565b60405180910390f35b6101e560048036038101906101e09190610db6565b6106ae565b005b6101ef610734565b806003846040516102009190610e1f565b90815260200160405180910390208360405161021c9190610e1f565b90815260200160405180910390209081610236919061104c565b507f6fb9dba60c422397904c5b9b9a9c4d0c8e9a1a627307c39b11ba3f86ec3159db83838360405161026a9392919061111e565b60405180910390a1505050565b60028180516020810182018051848252602083016020850120818352809550505050505060009150905080546102ac90610e65565b80601f01602080910402602001604051908101604052809291908181526020018280546102d890610e65565b80156103255780601f106102fa57610100808354040283529160200191610325565b820191906000526020600020905b81548152906001019060200180831161030857829003601f168201915b505050505081565b610335610734565b61033f60006107bb565b565b610349610734565b600160008373ffffffffffffffffffffffffffffffffffffffff1673ffffffffffffffffffffffffffffffffffffffff16815260200190815260200160002060006103949190610887565b6002816040516103a49190610e1f565b908152602001604051809103902060006103be9190610887565b5050565b6103ca610734565b6003826040516103da9190610e1f565b9081526020016040518091039020816040516103f69190610e1f565b908152602001604051809103902060006104109190610887565b5050565b60008060009054906101000a900473ffffffffffffffffffffffffffffffffffffffff16905090565b6003828051602081018201805184825260208301602085012081835280955050505050508180516020810182018051848252602083016020850120818352809550505050505060009150915050805461049590610e65565b80601f01602080910402602001604051908101604052809291908181526020018280546104c190610e65565b801561050e5780601f106104e35761010080835404028352916020019161050e565b820191906000526020600020905b8154815290600101906020018083116104f157829003601f168201915b505050505081565b61051e610734565b80600160008573ffffffffffffffffffffffffffffffffffffffff1673ffffffffffffffffffffffffffffffffffffffff168152602001908152602001600020908161056a919061104c565b508060028360405161057c9190610e1f565b90815260200160405180910390209081610596919061104c565b507f19cde0105ca284e26f1126c5dc2b589729c32ae2901b59c81f72f836e0adf60c83826040516105c892919061116a565b60405180910390a17ff5ff7b5e88e8dc6d3e26079398c40fcbaf125a4b84a11431c5664fb5a2e04a7e828260405161060192919061119a565b60405180910390a1505050565b6001602052806000526040600020600091509050805461062d90610e65565b80601f016020809104026020016040519081016040528092919081815260200182805461065990610e65565b80156106a65780601f1061067b576101008083540402835291602001916106a6565b820191906000526020600020905b81548152906001019060200180831161068957829003601f168201915b505050505081565b6106b6610734565b600073ffffffffffffffffffffffffffffffffffffffff168173ffffffffffffffffffffffffffffffffffffffff16036107285760006040517f1e4fbdf700000000000000000000000000000000000000000000000000000000815260040161071f9190610d10565b60405180910390fd5b610731816107bb565b50565b61073c61087f565b73ffffffffffffffffffffffffffffffffffffffff1661075a610414565b73ffffffffffffffffffffffffffffffffffffffff16146107b95761077d61087f565b6040517f118cdaa70000000000000000000000000000000000000000000000000000000081526004016107b09190610d10565b60405180910390fd5b565b60008060009054906101000a900473ffffffffffffffffffffffffffffffffffffffff169050816000806101000a81548173ffffffffffffffffffffffffffffffffffffffff021916908373ffffffffffffffffffffffffffffffffffffffff1602179055508173ffffffffffffffffffffffffffffffffffffffff168173ffffffffffffffffffffffffffffffffffffffff167f8be0079c531659141344cd1fd0a4f28419497f9722a3daafe3b4186f6b6457e060405160405180910390a35050565b600033905090565b50805461089390610e65565b6000825580601f106108a557506108c4565b601f0160209004906000526020600020908101906108c391906108c7565b5b50565b5b808211156108e05760008160009055506001016108c8565b5090565b6000604051905090565b600080fd5b600080fd5b600080fd5b600080fd5b6000601f19601f8301169050919050565b7f4e487b7100000000000000000000000000000000000000000000000000000000600052604160045260246000fd5b61094b82610902565b810181811067ffffffffffffffff8211171561096a57610969610913565b5b80604052505050565b600061097d6108e4565b90506109898282610942565b919050565b600067ffffffffffffffff8211156109a9576109a8610913565b5b6109b282610902565b9050602081019050919050565b82818337600083830152505050565b60006109e16109dc8461098e565b610973565b9050828152602081018484840111156109fd576109fc6108fd565b5b610a088482856109bf565b509392505050565b600082601f830112610a2557610a246108f8565b5b8135610a358482602086016109ce565b91505092915050565b600080600060608486031215610a5757610a566108ee565b5b600084013567ffffffffffffffff811115610a7557610a746108f3565b5b610a8186828701610a10565b935050602084013567ffffffffffffffff811115610aa257610aa16108f3565b5b610aae86828701610a10565b925050604084013567ffffffffffffffff811115610acf57610ace6108f3565b5b610adb86828701610a10565b9150509250925092565b600060208284031215610afb57610afa6108ee565b5b600082013567ffffffffffffffff811115610b1957610b186108f3565b5b610b2584828501610a10565b91505092915050565b600081519050919050565b600082825260208201905092915050565b60005b83811015610b68578082015181840152602081019050610b4d565b60008484015250505050565b6000610b7f82610b2e565b610b898185610b39565b9350610b99818560208601610b4a565b610ba281610902565b840191505092915050565b60006020820190508181036000830152610bc78184610b74565b905092915050565b600073ffffffffffffffffffffffffffffffffffffffff82169050919050565b6000610bfa82610bcf565b9050919050565b610c0a81610bef565b8114610c1557600080fd5b50565b600081359050610c2781610c01565b92915050565b60008060408385031215610c4457610c436108ee565b5b6000610c5285828601610c18565b925050602083013567ffffffffffffffff811115610c7357610c726108f3565b5b610c7f85828601610a10565b9150509250929050565b60008060408385031215610ca057610c9f6108ee565b5b600083013567ffffffffffffffff811115610cbe57610cbd6108f3565b5b610cca85828601610a10565b925050602083013567ffffffffffffffff811115610ceb57610cea6108f3565b5b610cf785828601610a10565b9150509250929050565b610d0a81610bef565b82525050565b6000602082019050610d256000830184610d01565b92915050565b600080600060608486031215610d4457610d436108ee565b5b6000610d5286828701610c18565b935050602084013567ffffffffffffffff811115610d7357610d726108f3565b5b610d7f86828701610a10565b925050604084013567ffffffffffffffff811115610da057610d9f6108f3565b5b610dac86828701610a10565b9150509250925092565b600060208284031215610dcc57610dcb6108ee565b5b6000610dda84828501610c18565b91505092915050565b600081905092915050565b6000610df982610b2e565b610e038185610de3565b9350610e13818560208601610b4a565b80840191505092915050565b6000610e2b8284610dee565b915081905092915050565b7f4e487b7100000000000000000000000000000000000000000000000000000000600052602260045260246000fd5b60006002820490506001821680610e7d57607f821691505b602082108103610e9057610e8f610e36565b5b50919050565b60008190508160005260206000209050919050565b60006020601f8301049050919050565b600082821b905092915050565b600060088302610ef87fffffffffffffffffffffffffffffffffffffffffffffffffffffffffffffffff82610ebb565b610f028683610ebb565b95508019841693508086168417925050509392505050565b6000819050919050565b6000819050919050565b6000610f49610f44610f3f84610f1a565b610f24565b610f1a565b9050919050565b6000819050919050565b610f6383610f2e565b610f77610f6f82610f50565b848454610ec8565b825550505050565b600090565b610f8c610f7f565b610f97818484610f5a565b505050565b5b81811015610fbb57610fb0600082610f84565b600181019050610f9d565b5050565b601f82111561100057610fd181610e96565b610fda84610eab565b81016020851015610fe9578190505b610ffd610ff585610eab565b830182610f9c565b50505b505050565b600082821c905092915050565b600061102360001984600802611005565b1980831691505092915050565b600061103c8383611012565b9150826002028217905092915050565b61105582610b2e565b67ffffffffffffffff81111561106e5761106d610913565b5b6110788254610e65565b611083828285610fbf565b600060209050601f8311600181146110b657600084156110a4578287015190505b6110ae8582611030565b865550611116565b601f1984166110c486610e96565b60005b828110156110ec578489015182556001820191506020850194506020810190506110c7565b868310156111095784890151611105601f891682611012565b8355505b6001600288020188555050505b505050505050565b600060608201905081810360008301526111388186610b74565b9050818103602083015261114c8185610b74565b905081810360408301526111608184610b74565b9050949350505050565b600060408201905061117f6000830185610d01565b81810360208301526111918184610b74565b90509392505050565b600060408201905081810360008301526111b48185610b74565b905081810360208301526111c88184610b74565b9050939250505056fea264697066735822122019f1a87145830101bd0d3f8a05a89104a01f431c4c55dc9a9c712fc536289f6264736f6c634300081e0033",
  "linkReferences": {},
  "deployedLinkReferences": {}
}